:100000000C943E000C945B000C945B000C945B0021
:100010000C945B000C945B000C945B000C945B00F4
:100020000C945B000C945B000C945B000C945B00E4
:100030000C945B000C945D000C945B000C945B00D2
:100040000C945B000C945B000C945B000C945B00C4
:100050000C945B000C945B000C945B000C945B00B4
:100060000C945B000C945B000C945B000C945B00A4
:100070000C945B000C945B000C945B0011241FBE7D
:10008000CFEFD0E1DEBFCDBF11E0A0E0B1E0E6E50B
:10009000F1E002C005900D92AA30B107D9F711E046
:1000A000AAE0B1E001C01D92AB30B107E1F70E94B8
:1000B00084000C94A9000C9400001F920F920FB6BC
:1000C0000F9211242F936F937F938F939F93EF93AE
:1000D000FF9320910A01822F6AE00E949D00E0E0D8
:1000E000F1E0E90FF11D808182B92F5F20930A01B1
:1000F000FF91EF919F918F917F916F912F910F9031
:100100000FBE0F901F9018958FEF81B9109280004D
:1001100088E08093810080918100856080938100D8
:1001200086EC9DE2909389008093880080916F0017
:10013000826080936F007894FFCF991B79E004C0B0
:10014000991F961708F0961B881F7A95C9F7809516
:060150000895F894FFCFB2
:0A015600FC60DAF266B6BEE0FEE6D9
:00000001FF
