:100000000C943E000C9453000C9453000C94530039
:100010000C9453000C9453000C9453000C94530014
:100020000C9453000C9453000C9453000C94530004
:100030000C9453000C9453000C9453000C945300F4
:100040000C9453000C9453000C9453000C945300E4
:100050000C9453000C9453000C9453000C945300D4
:100060000C9453000C9453000C9453000C945300C4
:100070000C9453000C9453000C94530011241FBE95
:10008000CFEFD0E1DEBFCDBF11E0A0E0B1E0E4E40E
:10009000F1E002C005900D92A433B107D9F70E9498
:1000A0007D000C94A0000C9400001092C5008DE41B
:1000B0008093C40088E18093C10086E08093C200F1
:1000C00008958091C00087FFFCCF8091C6000895FD
:1000D000982F8091C00085FFFCCF9093C6000895B3
:1000E000FC0107C08091C00085FFFCCF9093C60043
:1000F000319690819923B1F708951F931092C5000E
:100100008DE48093C40088E18093C10086E08093F1
:10011000C20080E091E00E9470008091C00087FFE3
:10012000FCCF1091C60086E191E00E9470008091A2
:10013000C00085FFFCCF1093C6008FE291E0EBCFAB
:04014000F894FFCF61
:1001440048656C6C6F2066726F6D20496C204D6140
:1001540074746F0A0D00596F752073656E74207482
:100164006865206368617261637465722027002783
:040174000A0D000070
:00000001FF
