:100000000C943E000C9453000C9453000C94530039
:100010000C9453000C9453000C9453000C94530014
:100020000C9453000C9453000C9453000C94530004
:100030000C9453000C9453000C9453000C945300F4
:100040000C9453000C9453000C9453000C945300E4
:100050000C9453000C9453000C9453000C945300D4
:100060000C9453000C9453000C9453000C945300C4
:100070000C9453000C9453000C94530011241FBE95
:10008000CFEFD0E1DEBFCDBF11E0A0E0B1E0EAE903
:10009000F1E002C005900D92AA3DB107D9F70E9488
:1000A000BD000C94CB000C9400002F9A80ED97E0DB
:1000B0002CE231E0F9013197F1F70197D9F7089572
:1000C0002F9880ED97E02CE231E0F9013197F1F7BC
:1000D0000197D9F708951F93CF93DF93EC0110E0B8
:1000E00013C0ED3229F0EE3239F0E03261F407C08E
:1000F0000E9455000E9455000E94550002C00E94B7
:1001000060000E9460001F5FFE01E10FF11DE081B1
:10011000EE2339F70E9460000E946000DF91CF91CA
:100120001F9108950F931F93CF93DF938C0119C0F4
:10013000F8018081992787FD90950E94C30028814E
:10014000332727FD30958217930721F489819A81FF
:100150000E946B002396F1E0CA3DDF0749F70F5F6D
:100160001F4FF8018081882319F0C9E8D1E0E0CF62
:10017000DF91CF911F910F910895279A80E091E030
:100180000E949200FBCF9111089581568A5108F484
:0A019000805285580895F894FFCFBF
:10019A0048656C6C6F20576F726C64202020202099
:1001AA00202020202020202020002E2D002D2E2E41
:1001BA002E002D2E2D2E002D2E2E002E002E2E2D11
:1001CA002E002D2D2E002E2E2E2E002E2E002E2D00
:1001DA002D2D002E2D2E2D002E2D2E2E002D2D00F4
:1001EA002D2E002D2D2D002E2D2D2E002D2D2E2DB8
:1001FA00002E2D2E002E2E2E002D002E2E2D002EFE
:10020A002E2E2D002E2D2D002D2E2E2D002D2E2D95
:10021A002D002D2D2E2E002000411A01421D0143D2
:10022A002201442701452B01462D01473201483658
:10023A0001493B014A3E014B43014C48014D4D01E6
:10024A004E50014F5301505701515C015261015305
:10025A006501546901556B01566F0157740158784D
:0A026A0001597D015A82012087012D
:00000001FF
