:100000000C943E000C9453000C9453000C94530039
:100010000C9453000C9453000C9453000C94530014
:100020000C9453000C9453000C9453000C94530004
:100030000C9453000C9453000C9453000C945300F4
:100040000C9453000C9453000C9453000C945300E4
:100050000C9453000C9453000C9453000C945300D4
:100060000C9453000C9453000C9453000C945300C4
:100070000C9453000C9453000C94530011241FBE95
:10008000CFEFD0E1DEBFCDBF11E0A0E0B1E0EAE903
:10009000F1E002C005900D92A83EB107D9F70E9489
:1000A000BD000C94CB000C9400002F9A80ED97E0DB
:1000B0002CE231E0F9013197F1F70197D9F7089572
:1000C0002F9880ED97E02CE231E0F9013197F1F7BC
:1000D0000197D9F708951F93CF93DF93EC0110E0B8
:1000E00013C0ED3229F0EE3239F0E03261F407C08E
:1000F0000E9455000E9455000E94550002C00E94B7
:1001000060000E9460001F5FFE01E10FF11DE081B1
:10011000EE2339F70E9460000E946000DF91CF91CA
:100120001F9108950F931F93CF93DF938C0119C0F4
:10013000F8018081992787FD90950E94C30028814E
:10014000332727FD30958217930721F489819A81FF
:100150000E946B002396F1E0C83EDF0749F70F5F6E
:100160001F4FF8018081882319F0C7E9D1E0E0CF63
:10017000DF91CF911F910F910895279A80E091E030
:100180000E949200FBCF9111089581568A5108F484
:0A019000805285580895F894FFCFBF
:10019A0048656C70206D652C2049276D2070726F40
:1001AA006772616D6D696E672120202020202020F2
:1001BA0020202020202020002E2D002D2E2E2E0043
:1001CA002D2E2D2E002D2E2E002E002E2E2D2E0001
:1001DA002D2D2E002E2E2E2E002E2E002E2D2D2DC4
:1001EA00002E2D2E2D002E2D2E2E002D2D002D2EE3
:1001FA00002D2D2D002E2D2D2E002D2D2E2D002ED5
:10020A002D2E002E2E2E002D002E2E2D002E2E2EBF
:10021A002D002E2D2D002D2E2E2D002D2E2D2D00B4
:10022A002D2D2E2E002000412801422B01433001A2
:10023A00443501453901463B0147400148440149DB
:10024A0049014A4C014B51014C56014D5B014E5E2E
:10025A00014F6101506501516A01526F01537301E7
:10026A00547701557901567D015782015886015903
:08027A008B015A90012095014F
:00000001FF
