:100000000C943E000C9452000C9469000C94500027
:100010000C9450000C9450000C9450000C94500020
:100020000C9450000C9450000C9450000C94500010
:100030000C9450000C9450000C9450000C94500000
:100040000C9450000C9450000C9450000C945000F0
:100050000C9450000C9450000C9450000C945000E0
:100060000C9450000C9450000C9450000C945000D0
:100070000C9450000C9450000C94500011241FBE9E
:10008000CFEFD0E1DEBFCDBF11E0A0E0B1E001C015
:100090001D92A130B107E1F70E9481000C948D0000
:1000A0000C9400001F920F920FB60F9211248F93A1
:1000B00080910001882319F0815080930001809184
:1000C000000182B978948F910F900FBE0F901F900E
:1000D00018951F920F920FB60F9211248F93F894D8
:1000E000809100018F3F19F08F5F80930001809114
:1000F000000182B978948F910F900FBE0F901F90DE
:1001000018958FEF81B91AB88BB980916900826018
:0E01100080936900E89A7894FFCFF894FFCFAF
:00000001FF
