:100000000C943E000C9448000C9448000C9448005A
:100010000C9448000C9448000C9448000C94480040
:100020000C9448000C9448000C9448000C94480030
:100030000C9448000C9448000C9448000C94480020
:100040000C9448000C9448000C9448000C94480010
:100050000C9448000C9448000C9448000C94480000
:100060000C944A000C9448000C9448000C944800EE
:100070000C9448000C9448000C94480011241FBEB6
:10008000CFEFD0E1DEBFCDBF0E9464000C947E00B4
:100090000C9400001F920F920FB60F9211242F9311
:1000A0008F939F9380917800909179008B58924024
:1000B00010F02F9A01C02F989F918F912F910F9040
:1000C0000FBE0F901F901895279A2F9886E0809367
:1000D0007A0010927C0080917A00806A80937A0086
:1000E00010927B00789480917A00886080937A00E7
:1000F00080917A00806480937A00FFCFF894FFCFDC
:00000001FF
