:100000000C943E000C9453000C9453000C94530039
:100010000C9453000C9453000C9453000C94530014
:100020000C9453000C9453000C9453000C94530004
:100030000C9453000C9453000C9453000C945300F4
:100040000C9453000C9453000C9453000C945300E4
:100050000C9453000C9453000C9453000C945300D4
:100060000C9453000C9453000C9453000C945300C4
:100070000C9453000C9453000C94530011241FBE95
:10008000CFEFD0E1DEBFCDBF11E0A0E0B1E0EEE503
:10009000F1E002C005900D92AA30B107D9F70E9495
:1000A00068000C94AD000C9400008370089590E0FB
:1000B0002CED35E009C01098F9013197F1F7109A4D
:1000C000F9013197F1F79F5F9817A8F380E0089541
:1000D000FF920F931F93CF93DF938FEF81B917B8E0
:1000E00088B98CEF82B9FF2400E0C0E3D5E716B1F0
:1000F000137019F4023081F404C0133099F4013004
:1001000031F4FA948EE10E945700133019F4023052
:1001100049F404C0112331F4013021F4F3948EE149
:100120000E9457008F2D6AE00E94A100E92FF0E0A5
:10013000E050FF4F808182B9CE010197F1F7012F86
:10014000D6CF991B79E004C0991F961708F0961B2B
:0E015000881F7A95C9F780950895F894FFCF1F
:0A015E00FC60DAF266B6BEE4FEF6BD
:00000001FF
