:100000000C943E000C945B000C945B000C945B0021
:100010000C945B000C945B000C945B000C945B00F4
:100020000C945B000C945B000C945B000C945B00E4
:100030000C945B000C945B000C945B000C945B00D4
:100040000C945B000C945B000C945B000C945B00C4
:100050000C945B000C945B000C945B000C945B00B4
:100060000C945B000C945B000C945B000C945B00A4
:100070000C945B000C945B000C945B0011241FBE7D
:10008000CFEFD0E1DEBFCDBF11E0A0E0B1E0E6E20E
:10009000F1E002C005900D92AA30B107D9F711E046
:1000A000AAE0B1E001C01D92AB30B107E1F70E94B8
:1000B0005D000C9491000C9400008FEF81B917B88B
:1000C00088B98CEF82B930910A0148EB5BE00DC032
:1000D0003F5F20E01098CA010197F1F7109ACA011A
:1000E0000197F1F72F5F2639A9F7379BF1CF832FBF
:1000F0006AE00E948500E92FF0E0E050FF4F02C067
:10010000808182B93799FCCFF0CF991B79E004C088
:10011000991F961708F0961B881F7A95C9F7809546
:060120000895F894FFCFE2
:0A012600FC60DAF266B6BEE0FEE609
:00000001FF
