:100000000C943E000C945B000C945B000C945B0021
:100010000C945B000C945B000C945B000C945B00F4
:100020000C945B000C945B000C945B000C945B00E4
:100030000C945B000C945B000C945B000C945B00D4
:100040000C945B000C945B000C945B000C945B00C4
:100050000C945B000C945B000C945B000C945B00B4
:100060000C945B000C945B000C945B000C945B00A4
:100070000C945B000C945B000C945B0011241FBE7D
:10008000CFEFD0E1DEBFCDBF11E0A0E0B1E0E0E610
:10009000F1E002C005900D92AA30B107D9F711E046
:1000A000AAE0B1E001C01D92AF30B107E1F70E94B4
:1000B0005D000C94AE000C9400008FEF81B917B86E
:1000C00088B98CEF82B9B0910C0130910A01A091EE
:1000D0000E0148EB5BE013C086B182708B1779F09C
:1000E000882369F03F5F20E01098CA010197F1F77B
:1000F000109ACA010197F1F72F5F2233A9F7309BBD
:10010000EBCF13C086B181708A1779F0882369F02C
:10011000315020E01098CA010197F1F7109ACA01F6
:100120000197F1F72F5F2233A9F7319BEBCF832F94
:100130006AE00E94A200E92FF0E0E050FF4F8081CA
:1001400082B9DDCF991B79E004C0991F961708F09A
:10015000961B881F7A95C9F780950895F894FFCF6C
:0A016000FC60DAF266B6BEE0FEE6CF
:00000001FF
