:100000000C943E000C9453000C9453000C94530039
:100010000C9453000C9453000C9453000C94530014
:100020000C9453000C9453000C9453000C94530004
:100030000C9453000C9453000C9453000C945300F4
:100040000C9453000C9453000C9453000C945300E4
:100050000C9453000C9453000C9453000C945300D4
:100060000C9453000C9453000C9453000C945300C4
:100070000C9453000C9453000C94530011241FBE95
:10008000CFEFD0E1DEBFCDBF11E0A0E0B1E0E6E20E
:10009000F1E002C005900D92AA30B107D9F70E9495
:1000A00057000C9491000C940000837008958FEF1A
:1000B00081B917B888B98CEF82B930E080E040E3AD
:1000C00055E726B1237019F4823069F404C0233057
:1000D00069F4813019F43150233019F4823031F44D
:1000E00004C0222319F4813009F43F5F832F6AE0B2
:1000F0000E948500E92FF0E0E050FF4F808182B937
:10010000CA010197F1F7822FDCCF991B79E004C077
:10011000991F961708F0961B881F7A95C9F7809546
:060120000895F894FFCFE2
:0A012600FC60DAF266B6BEE4FEF6F5
:00000001FF
