:100000000C943E000C945B000C945B000C945B0021
:100010000C945B000C945B000C945B000C945B00F4
:100020000C945B000C945B000C945B000C945B00E4
:100030000C945B000C945B000C945B000C945B00D4
:100040000C945B000C945B000C945B000C945B00C4
:100050000C945B000C945B000C945B000C945B00B4
:100060000C945B000C945B000C945B000C945B00A4
:100070000C945B000C945B000C945B0011241FBE7D
:10008000CFEFD0E1DEBFCDBF11E0A0E0B1E0ECE406
:10009000F1E002C005900D92AA30B107D9F711E046
:1000A000AAE0B1E001C01D92AF30B107E1F70E94B4
:1000B0005D000C94A4000C9400008FEF81B917B878
:1000C00088B98CEF82B9A0910C0120910A0130917E
:1000D0000E014CE251E00EC086B182708A1751F0D9
:1000E000882341F02F5F80E197E2FA013197F1F721
:1000F0000197D9F7309BF0CF0EC086B1817083177E
:1001000051F0882341F0215080E197E2FA013197C4
:10011000F1F70197D9F7319BF0CF822F6AE00E9467
:100120009800E92FF0E0E050FF4F808182B9E2CFE4
:10013000991B79E004C0991F961708F0961B881F39
:0C0140007A95C9F780950895F894FFCFD8
:0A014C00FC60DAF266B6BEE4FEF6CF
:00000001FF
