:100000000C943E000C945B000C945B000C945B0021
:100010000C945B000C945B000C945B000C945B00F4
:100020000C945B000C945B000C945B000C945B00E4
:100030000C945B000C945B000C945B000C945B00D4
:100040000C945B000C945B000C945B000C945B00C4
:100050000C945B000C945B000C945B000C945B00B4
:100060000C945B000C945B000C945B000C945B00A4
:100070000C945B000C945B000C945B0011241FBE7D
:10008000CFEFD0E1DEBFCDBF11E0A0E0B1E0EEE206
:10009000F1E002C005900D92AA30B107D9F711E046
:1000A000AAE0B1E001C01D92AB30B107E1F70E94B8
:1000B0005D000C9495000C9400008FEF81B917B887
:1000C00088B98CEF82B920910A0140E757E106C058
:1000D000319B04C02F5FCA010197F1F73099F8CF27
:1000E00006C0319B04C0CA010197F1F72150309935
:1000F000F8CF822F6AE00E948900E92FF0E0E050FB
:10010000FF4F02C0808182B9309BE8CF319BFACF8C
:10011000E5CF991B79E004C0991F961708F0961B4C
:0E012000881F7A95C9F780950895F894FFCF4F
:0A012E00FC60DAF266B6BEE0FEE601
:00000001FF
