:100000000C943E000C9448000C9448000C9448005A
:100010000C9448000C9448000C9448000C94480040
:100020000C9448000C9448000C9448000C94480030
:100030000C9448000C9448000C9448000C94480020
:100040000C9448000C9448000C9448000C94480010
:100050000C9448000C9448000C9448000C94480000
:100060000C9448000C9448000C9448000C944800F0
:100070000C9448000C9448000C94480011241FBEB6
:10008000CFEFD0E1DEBFCDBF0E9480000C948D0089
:100090000C94000080EB84B981E58CBD08958EBD81
:1000A0000DB407FEFDCF08950DB407FEFDCF8EB54C
:1000B00008951F93182F80E10E944F00812F0E9406
:1000C0004F001F9108951F93182F80E00E944F004A
:1000D000812F0E944F001F91089584E10E944F00DC
:1000E000089588E10E944F00089584E00E944F0027
:1000F000089588E00E944F0008950E944A000895E4
:100100000E947D0080E00E94630080E00E94590010
:0E0110000E9475000E946D00FBCFF894FFCF97
:00000001FF
