:100000000C9444000C9461000C9461000C94610009
:100010000C9461000C9461000C9461000C946100DC
:100020000C9461000C9461000C9461000C946100CC
:100030000C9461000C9461000C9461000C946100BC
:100040000C9461000C9461000C9461000C946100AC
:100050000C9461000C9461000C9461000C9461009C
:100060000C9461000C9461000C9461000C9461008C
:100070000C9461000C9461000C9461006364696EDF
:100080006F70737578585B0011241FBECFEFD0E1FD
:10009000DEBFCDBF11E0A0E0B1E0E4E7FEE002C0CA
:1000A00005900D92AE33B107D9F711E0AEE3B1E0A0
:1000B00001C01D92A534B107E1F70E949B000C948A
:1000C00038070C9400001F93182F8A3019F48DE024
:1000D0000E9463008091C00085FFFCCF1093C60092
:1000E000212F332727FD3095C9011F910895809155
:1000F000C00087FFFCCF8091C60090E00895109269
:10010000C5008DE48093C40088E18093C10086E03F
:100110008093C2008FE291E090934201809341016D
:10012000909344018093430181E291E090934001D8
:1001300080933F0108958F929F92AF92BF92CF928A
:10014000DF92EF92FF920F931F93DF93CF930F9263
:10015000CDB7DEB78FEF81B90E947F0020E0822EFD
:1001600021E0922E94E1A92E91E0B92E6E0108941F
:10017000C11CD11C8CE2E82E81E0F82E80913E015A
:100180006AE00E941801092F10E000D000D0ADB73E
:10019000BEB712969C928E92119714961C930E9352
:1001A00013970E9461010F900F900F900F900930EC
:1001B000110561F58AE090E00E94760160914301AB
:1001C0007091440183E091E00E94240100D000D0AE
:1001D00000D0EDB7FEB7319680913F01909140017C
:1001E000ADB7BEB712969C938E931197B382A2823D
:1001F000D582C4820E944D01EDB7FEB736960FB688
:10020000F894FEBF0FBEEDBF892B01F3095E1E4FB0
:10021000D8018C9182B980913E018F5F80933E011D
:1002200080E197E2F7013197F1F70197D9F7A6CF6F
:10023000991B79E004C0991F961708F0961B881F38
:100240007A95C9F780950895EF92FF920F931F93C7
:10025000CF93DF937C018B01DB0113968C9181FDA1
:1002600003C0CFEFDFEF13C0C0E0D0E00BC0D80178
:100270001896ED91FC911997B8010995892B11F009
:10028000CFEFDFEFF70181917F01882381F7CE0166
:10029000CDB7DEB7E6E00C942907A0E0B0E0E3E5D7
:1002A000F1E00C9411079E01275F3F4F8D819E81E5
:1002B0006F817885A9010E94DE042096E2E00C940B
:1002C0002D07A0E0B0E0E7E6F1E00C941107FE0195
:1002D0003596619171918091410190914201AF01F8
:1002E0000E947D012096E2E00C942D07609141016F
:1002F000709142010E945A060895ABE0B0E0E3E835
:10030000F1E00C9401073C012B015A01FC0117821A
:100310001682838181FD03C06FEF7FEFC6C19AE033
:10032000892E1E010894211C311CF3012381F20146
:1003300023FD859123FF81912F01882309F4B2C108
:10034000853239F423FD859123FF81912F01853278
:1003500029F490E0B3010E945A06E7CF982FFF24BA
:10036000EE249924FFE1FF15D0F09B3269F09C3216
:1003700028F4903259F0933291F40EC09D3249F036
:10038000903369F441E024C052E0F52A84E0F82A71
:1003900028C098E0F92A25C0E0E1FE2A22C0F7FC37
:1003A00029C0892F80538A3070F4F6FE05C0989CCE
:1003B000902C1124980E15C0E89CE02C1124E80E16
:1003C000F0E2FF2A0EC09E3229F4F6FC6BC140E435
:1003D000F42A07C09C3619F450E8F52A02C0983672
:1003E00049F4F20123FD959123FF91912F01992367
:1003F00009F0B8CF892F8554833018F080528330AC
:1004000038F444E050E0A40EB51E5FE359830FC0FA
:10041000933631F0933779F0933509F056C020C008
:10042000F5018081898342E050E0A40EB51E610190
:1004300001E010E012C0F501C080D180F6FC03C0DD
:100440006FEF7FEF02C0692D70E042E050E0A40E34
:10045000B51EC6010E940D068C015FE7F52214C08F
:10046000F501C080D180F6FC03C06FEF7FEF02C0C2
:10047000692D70E042E050E0A40EB51EC6010E9456
:1004800002068C0150E8F52AF3FE07C01AC080E28C
:1004900090E0B3010E945A06EA948E2D90E008176E
:1004A0001907A8F30EC0F601F7FC8591F7FE8191BC
:1004B0006F0190E0B3010E945A06E110EA940150E6
:1004C00010400115110579F7EAC0943611F09936FC
:1004D00069F5F7FE08C0F501208131814281538121
:1004E00084E090E00AC0F501808191819C0144275D
:1004F00037FD4095542F82E090E0A80EB91E9FE68C
:10050000F92257FF09C050954095309521953F4FEE
:100510004F4F5F4FE0E8FE2ACA01B901A1012AE06E
:1005200030E00E94A006D82ED21840C0953729F49A
:100530001F2D1F7E2AE030E01DC01F2D197F9F3622
:1005400061F0903720F4983509F0ACC00FC09037B7
:1005500039F0983709F0A6C004C028E030E00AC09E
:10056000106114FD146020E130E004C014FD166039
:1005700020E132E017FF08C0F501608171818281BE
:10058000938144E050E008C0F50180819181BC0175
:1005900080E090E042E050E0A40EB51EA1010E9470
:1005A000A006D82ED2188FE7F82EF122F6FE0BC047
:1005B0005EEFF522D91438F4F4FE07C0F2FC05C052
:1005C0008FEEF82202C01D2D01C0192DF4FE0DC0C2
:1005D000FE01ED0DF11D8081803319F499EEF922B1
:1005E00008C01F5FF2FE05C003C08F2D867809F09A
:1005F0001F5F0F2DF3FC14C0F0FE0FC01E1510F08E
:100600009D2C0BC09D2C9E0C911A1E2D06C080E2C5
:1006100090E0B3010E945A061F5F1E15C0F304C08C
:100620001E1510F4E11A01C0EE2404FF0FC080E390
:1006300090E0B3010E945A0602FF1DC001FD03C0F5
:1006400088E790E00EC088E590E00BC0802F8678A8
:1006500091F001FF02C08BE201C080E2F7FC8DE265
:1006600090E0B3010E945A0606C080E390E0B30117
:100670000E945A069A94D914C0F3DA94F101ED0D50
:10068000F11D808190E0B3010E945A06DD20A9F798
:1006900006C080E290E0B3010E945A06EA94EE2080
:1006A000C1F743CEF30166817781CB012B96E2E15E
:1006B0000C941D07FC0120FD08C023FD05C022FF8E
:1006C00002C073836283518340830895EF92FF9247
:1006D0000F931F9344FF02C033E011C046FF02C0D6
:1006E00034E00DC0DB01FC01AA0FBB1FEE1FFF1F92
:1006F0001094D1F76A0F7B1F8E1F9F1F31E0660F8A
:10070000771F881F991F3150D1F77B018C01E20EB2
:10071000F11C011D111DA8019701B701CA011F910C
:100720000F91FF90EF9008950F931F93CF93DF9356
:100730008C01C8010E941806EC0197FD08C00E94B8
:10074000EF05892BB1F7CE01B8010E948606CE01D4
:10075000DF91CF911F910F910895A0E0B0E0E3EBFE
:10076000F3E00C940907EC01C62E5A01122F0E94E7
:100770001806AC018B3219F08D3251F41068CA940E
:1007800009F46DC0CE010E941806AC0197FD67C048
:100790006DEFD62ED1228D2D807301F54033F1F40B
:1007A000CA9409F447C0CE010E941806AC0197FD17
:1007B00041C082E0D82A483711F0483559F480E426
:1007C000D82ACA94B9F1CE010E941806AC01992327
:1007D0002CF430C0D6FC02C080E1D82AEE24FF24DD
:1007E0008701242F2053283088F0D4FC09C02A30F8
:1007F00068F0D6FE05C02F7D822F8151863028F00B
:10080000CA01BE010E94860612C02750C801B70166
:100810004D2D0E9466037B018C0182E0D82ACA9488
:1008200061F0CE010E941806AC0197FFDACFD1FC2F
:1008300004C015C0EE24FF248701D7FE08C0109520
:100840000095F094E094E11CF11C011D111DC501FF
:10085000B801A7012D2D0E945A0381E001C080E05C
:10086000CDB7DEB7EAE00C942507A0E2B0E0EBE3F9
:10087000F4E00C9405076C01A62E8A017901FE01B3
:10088000319680E2DF011D928A95E9F770E030E051
:1008900060E040E050E04F01A1E0B0E0F60183816C
:1008A000F70183FD259183FF21917F01222309F424
:1008B0007EC02E3519F44115510569F1872F90E05E
:1008C0008417950744F42D3551F12D3221F433234B
:1008D00029F431E021C0332309F4622F322F832F12
:1008E000869586958695F401E80FF11D832F877014
:1008F0003D0102C0660C771C8A95E2F7208126290B
:100900002083361711F430E007C0361710F43F5F2C
:10091000E6CF3150E4CF71E04F5F5F4FBFCF33235D
:1009200019F08E8180628E83772359F0FE01319613
:100930009E012F5D3F4F808180958193E217F307E1
:10094000D1F7BB24B3944E010894811C911CC601BD
:100950000E941806AC0197FD22C086958695869563
:10096000F401E80FF11D808190E09A01277030704A
:1009700002C0959587952A95E2F780FD05C0CA01CA
:10098000B6010E9486060BC00115110519F0D801A9
:100990004D938D01AA94BB24AA20C9F602C0BB20A6
:1009A00031F40115110529F0F801108202C0EE247E
:1009B000FF24C701A096EEE00C942107A0E0B0E070
:1009C000E4EEF4E00C9405075C016B013A01FC01D4
:1009D000178216828824EAC0812F90E00E94EF05DA
:1009E000892B21F0C5010E949403E0C0153249F41F
:1009F000F601F3FC6591F3FE61916F01653269F4D4
:100A000015E2C5010E94180697FDDCC0181709F40D
:100A1000CDC0B5010E948606DAC06A3219F0162FE1
:100A200000E006C0F3FC1591F3FE11916F0101E0A7
:100A300099240FC00260692D70E080E090E040E2F0
:100A40000E946603962EF601F3FC1591F3FE1191B8
:100A50006F01212F20532A3068F301FD03C0992430
:100A60009A9403C0992009F4B2C0183621F01C36BC
:100A700099F4F6010BC0F601F3FC6591F3FE619168
:100A8000683619F06F01162F07C008600460F3FC88
:100A90001591F3FE11916F01112309F498C08CE7B1
:100AA00090E0612F70E00E94F705892B09F48FC058
:100AB000802F00FF03C0EE24FF2407C0F301E08075
:100AC000F18022E030E0620E731E1E3651F4F50113
:100AD0004681578160E070E0C701202F0E945A03D1
:100AE00065C0133691F481FD02C099249394C50129
:100AF0000E94180697FD66C0E114F10419F0F70191
:100B000081937F019A9499F74FC01B3559F4C50121
:100B1000692DA70196010E9435046C01009709F028
:100B200043C03DC0C5010E94940397FD4BC01F36D2
:100B300059F1103728F4143629F1193639F527C040
:100B4000133719F0153711F51DC0C5010E9418069D
:100B5000EC0197FD11C00E94EF05892B29F0CE0111
:100B6000B5010E94860608C0E114F10419F0F701EE
:100B7000C1937F019A9449F7E114F104A9F0F701B8
:100B8000108212C0006203C0006101C00064C50190
:100B9000692DA701202F0E94AD03882329F4F501B8
:100BA0008381807379F413C000FF8394F501F3808F
:100BB000F601F3FC1591F3FE11916F01112309F079
:100BC0000BCF05C0882019F42FEF3FEF02C0282D6E
:100BD00030E0C901CDB7DEB7EEE00C9421079111EA
:100BE0000DC1803219F089508550D0F70895FC016D
:100BF0000590061621F00020D9F7C001089531971D
:100C0000CF010895FC010590615070400110D8F7A4
:100C1000809590958E0F9F1F0895FC016150704044
:100C200001900110D8F7809590958E0F9F1F089521
:100C3000CF93DF93EC014B8140FF1AC046FF0AC0FF
:100C40004F7B4B838E819F8101969F838E838A8108
:100C5000282F2BC042FF13C0E881F9818081282F03
:100C6000332727FD30952115310529F440624B8348
:100C70002FEF3FEF1BC03196F983E88311C0EA855F
:100C8000FB85CE0109959C0197FF0AC09B812F5FD0
:100C90003F4F11F080E201C080E1892B8B83E8CFC8
:100CA0008E819F8101969F838E8330E0C901DF9101
:100CB000CF9108950F931F93CF93DF938C01EB0196
:100CC0008B8181FF1BC082FF0DC02E813F818C81F3
:100CD0009D812817390764F4E881F9810193F9832C
:100CE000E88306C0E885F985802F0995892B31F4C2
:100CF0008E819F8101969F838E8302C00FEF1FEF2D
:100D0000C801DF91CF911F910F9108959C01FB01C4
:100D1000838180FF11C086FD0FC09FEF2F3F3907F1
:100D200059F0228380648F7D838386819781019728
:100D30009783868330E002C02FEF3FEFC90108950B
:100D4000FA01AA27283051F1203181F1E8946F93FC
:100D50006E7F6E5F7F4F8F4F9F4FAF4FB1E03ED0A2
:100D6000B4E03CD0670F781F891F9A1FA11D680F40
:100D7000791F8A1F911DA11D6A0F711D811D911D73
:100D8000A11D20D009F468943F912AE0269F1124E8
:100D90003019305D3193DEF6CF010895462F47704C
:100DA000405D4193B3E00FD0C9F7F6CF462F4F70A7
:100DB000405D4A3318F0495D31FD4052419302D005
:100DC000A9F7EACFB4E0A6959795879577956795AB
:100DD000BA95C9F700976105710508959B01AC01AB
:100DE0000A2E06945795479537952795BA95C9F7D2
:100DF000620F731F841F951FA01D089599278827D0
:100E000008952F923F924F925F926F927F928F92AE
:100E10009F92AF92BF92CF92DF92EF92FF920F9389
:100E20001F93CF93DF93CDB7DEB7CA1BDB0B0FB693
:100E3000F894DEBF0FBECDBF09942A883988488850
:100E40005F846E847D848C849B84AA84B984C884E6
:100E5000DF80EE80FD800C811B81AA81B981CE0FDD
:100E6000D11D0FB6F894DEBF0FBECDBFED010895C2
:040E7000F894FFCF24
:100E7400256900436F756E74206F766572666C6FBA
:100E8400770A0D00257300FC60DAF266B6BEE0FE58
:100E9400E6000000010000000000007700000000F0
:0E0EA4000000020000000063000000000000DB
:00000001FF
