:100000000C943E000C945B000C945B000C945B0021
:100010000C945B000C945B000C945B000C945B00F4
:100020000C945B000C945B000C945B000C945B00E4
:100030000C945B000C945B000C945B000C945B00D4
:100040000C945B000C945B000C945B000C945B00C4
:100050000C945B000C945B000C945B000C945B00B4
:100060000C945B000C945B000C945B000C945B00A4
:100070000C945B000C945B000C945B0011241FBE7D
:10008000CFEFD0E1DEBFCDBF11E0A0E0B1E0E8E00E
:10009000F1E002C005900D92AA30B107D9F711E046
:1000A000AAE0B1E001C01D92AB30B107E1F70E94B8
:1000B0005D000C9482000C9400008FEF81B92091B8
:1000C0000A014CE251E0822F6AE00E947600E92F9B
:1000D000F0E0E050FF4F808182B92F5F80E197E22E
:1000E000FA013197F1F70197D9F7EDCF991B79E034
:1000F00004C0991F961708F0961B881F7A95C9F7B8
:0801000080950895F894FFCFEB
:0A010800FC60DAF266B6BEE0FEE627
:00000001FF
